{
  "_format": "hh-sol-artifact-1",
  "contractName": "FuelToken",
  "sourceName": "contracts/FuelToken.sol",
  "abi": [
    {
      "inputs": [
        {
          "internalType": "address",
          "name": "cttmTokenAddress",
          "type": "address"
        },
        {
          "internalType": "uint256",
          "name": "_conversionRate",
          "type": "uint256"
        }
      ],
      "stateMutability": "nonpayable",
      "type": "constructor"
    },
    {
      "inputs": [],
      "name": "ECDSAInvalidSignature",
      "type": "error"
    },
    {
      "inputs": [
        {
          "internalType": "uint256",
          "name": "length",
          "type": "uint256"
        }
      ],
      "name": "ECDSAInvalidSignatureLength",
      "type": "error"
    },
    {
      "inputs": [
        {
          "internalType": "bytes32",
          "name": "s",
          "type": "bytes32"
        }
      ],
      "name": "ECDSAInvalidSignatureS",
      "type": "error"
    },
    {
      "inputs": [
        {
          "internalType": "address",
          "name": "spender",
          "type": "address"
        },
        {
          "internalType": "uint256",
          "name": "allowance",
          "type": "uint256"
        },
        {
          "internalType": "uint256",
          "name": "needed",
          "type": "uint256"
        }
      ],
      "name": "ERC20InsufficientAllowance",
      "type": "error"
    },
    {
      "inputs": [
        {
          "internalType": "address",
          "name": "sender",
          "type": "address"
        },
        {
          "internalType": "uint256",
          "name": "balance",
          "type": "uint256"
        },
        {
          "internalType": "uint256",
          "name": "needed",
          "type": "uint256"
        }
      ],
      "name": "ERC20InsufficientBalance",
      "type": "error"
    },
    {
      "inputs": [
        {
          "internalType": "address",
          "name": "approver",
          "type": "address"
        }
      ],
      "name": "ERC20InvalidApprover",
      "type": "error"
    },
    {
      "inputs": [
        {
          "internalType": "address",
          "name": "receiver",
          "type": "address"
        }
      ],
      "name": "ERC20InvalidReceiver",
      "type": "error"
    },
    {
      "inputs": [
        {
          "internalType": "address",
          "name": "sender",
          "type": "address"
        }
      ],
      "name": "ERC20InvalidSender",
      "type": "error"
    },
    {
      "inputs": [
        {
          "internalType": "address",
          "name": "spender",
          "type": "address"
        }
      ],
      "name": "ERC20InvalidSpender",
      "type": "error"
    },
    {
      "inputs": [
        {
          "internalType": "uint256",
          "name": "deadline",
          "type": "uint256"
        }
      ],
      "name": "ERC2612ExpiredSignature",
      "type": "error"
    },
    {
      "inputs": [
        {
          "internalType": "address",
          "name": "signer",
          "type": "address"
        },
        {
          "internalType": "address",
          "name": "owner",
          "type": "address"
        }
      ],
      "name": "ERC2612InvalidSigner",
      "type": "error"
    },
    {
      "inputs": [
        {
          "internalType": "address",
          "name": "account",
          "type": "address"
        },
        {
          "internalType": "uint256",
          "name": "currentNonce",
          "type": "uint256"
        }
      ],
      "name": "InvalidAccountNonce",
      "type": "error"
    },
    {
      "inputs": [],
      "name": "InvalidShortString",
      "type": "error"
    },
    {
      "inputs": [
        {
          "internalType": "address",
          "name": "owner",
          "type": "address"
        }
      ],
      "name": "OwnableInvalidOwner",
      "type": "error"
    },
    {
      "inputs": [
        {
          "internalType": "address",
          "name": "account",
          "type": "address"
        }
      ],
      "name": "OwnableUnauthorizedAccount",
      "type": "error"
    },
    {
      "inputs": [
        {
          "internalType": "string",
          "name": "str",
          "type": "string"
        }
      ],
      "name": "StringTooLong",
      "type": "error"
    },
    {
      "anonymous": false,
      "inputs": [
        {
          "indexed": true,
          "internalType": "address",
          "name": "owner",
          "type": "address"
        },
        {
          "indexed": true,
          "internalType": "address",
          "name": "spender",
          "type": "address"
        },
        {
          "indexed": false,
          "internalType": "uint256",
          "name": "value",
          "type": "uint256"
        }
      ],
      "name": "Approval",
      "type": "event"
    },
    {
      "anonymous": false,
      "inputs": [],
      "name": "EIP712DomainChanged",
      "type": "event"
    },
    {
      "anonymous": false,
      "inputs": [
        {
          "indexed": true,
          "internalType": "address",
          "name": "previousOwner",
          "type": "address"
        },
        {
          "indexed": true,
          "internalType": "address",
          "name": "newOwner",
          "type": "address"
        }
      ],
      "name": "OwnershipTransferred",
      "type": "event"
    },
    {
      "anonymous": false,
      "inputs": [
        {
          "indexed": false,
          "internalType": "uint256",
          "name": "newRate",
          "type": "uint256"
        }
      ],
      "name": "RateChange",
      "type": "event"
    },
    {
      "anonymous": false,
      "inputs": [
        {
          "indexed": true,
          "internalType": "address",
          "name": "swapper",
          "type": "address"
        },
        {
          "indexed": false,
          "internalType": "uint256",
          "name": "amountIn",
          "type": "uint256"
        },
        {
          "indexed": false,
          "internalType": "uint256",
          "name": "amountOut",
          "type": "uint256"
        }
      ],
      "name": "Swap",
      "type": "event"
    },
    {
      "anonymous": false,
      "inputs": [
        {
          "indexed": true,
          "internalType": "address",
          "name": "from",
          "type": "address"
        },
        {
          "indexed": true,
          "internalType": "address",
          "name": "to",
          "type": "address"
        },
        {
          "indexed": false,
          "internalType": "uint256",
          "name": "value",
          "type": "uint256"
        }
      ],
      "name": "Transfer",
      "type": "event"
    },
    {
      "inputs": [],
      "name": "DOMAIN_SEPARATOR",
      "outputs": [
        {
          "internalType": "bytes32",
          "name": "",
          "type": "bytes32"
        }
      ],
      "stateMutability": "view",
      "type": "function"
    },
    {
      "inputs": [
        {
          "internalType": "address",
          "name": "owner",
          "type": "address"
        },
        {
          "internalType": "address",
          "name": "spender",
          "type": "address"
        }
      ],
      "name": "allowance",
      "outputs": [
        {
          "internalType": "uint256",
          "name": "",
          "type": "uint256"
        }
      ],
      "stateMutability": "view",
      "type": "function"
    },
    {
      "inputs": [
        {
          "internalType": "address",
          "name": "spender",
          "type": "address"
        },
        {
          "internalType": "uint256",
          "name": "value",
          "type": "uint256"
        }
      ],
      "name": "approve",
      "outputs": [
        {
          "internalType": "bool",
          "name": "",
          "type": "bool"
        }
      ],
      "stateMutability": "nonpayable",
      "type": "function"
    },
    {
      "inputs": [
        {
          "internalType": "address",
          "name": "account",
          "type": "address"
        }
      ],
      "name": "balanceOf",
      "outputs": [
        {
          "internalType": "uint256",
          "name": "",
          "type": "uint256"
        }
      ],
      "stateMutability": "view",
      "type": "function"
    },
    {
      "inputs": [
        {
          "internalType": "uint256",
          "name": "value",
          "type": "uint256"
        }
      ],
      "name": "burn",
      "outputs": [],
      "stateMutability": "nonpayable",
      "type": "function"
    },
    {
      "inputs": [
        {
          "internalType": "address",
          "name": "account",
          "type": "address"
        },
        {
          "internalType": "uint256",
          "name": "value",
          "type": "uint256"
        }
      ],
      "name": "burnFrom",
      "outputs": [],
      "stateMutability": "nonpayable",
      "type": "function"
    },
    {
      "inputs": [],
      "name": "conversionRate",
      "outputs": [
        {
          "internalType": "uint256",
          "name": "",
          "type": "uint256"
        }
      ],
      "stateMutability": "view",
      "type": "function"
    },
    {
      "inputs": [],
      "name": "decimals",
      "outputs": [
        {
          "internalType": "uint8",
          "name": "",
          "type": "uint8"
        }
      ],
      "stateMutability": "view",
      "type": "function"
    },
    {
      "inputs": [],
      "name": "eip712Domain",
      "outputs": [
        {
          "internalType": "bytes1",
          "name": "fields",
          "type": "bytes1"
        },
        {
          "internalType": "string",
          "name": "name",
          "type": "string"
        },
        {
          "internalType": "string",
          "name": "version",
          "type": "string"
        },
        {
          "internalType": "uint256",
          "name": "chainId",
          "type": "uint256"
        },
        {
          "internalType": "address",
          "name": "verifyingContract",
          "type": "address"
        },
        {
          "internalType": "bytes32",
          "name": "salt",
          "type": "bytes32"
        },
        {
          "internalType": "uint256[]",
          "name": "extensions",
          "type": "uint256[]"
        }
      ],
      "stateMutability": "view",
      "type": "function"
    },
    {
      "inputs": [
        {
          "internalType": "address",
          "name": "to",
          "type": "address"
        },
        {
          "internalType": "uint256",
          "name": "amount",
          "type": "uint256"
        }
      ],
      "name": "mint",
      "outputs": [],
      "stateMutability": "nonpayable",
      "type": "function"
    },
    {
      "inputs": [],
      "name": "name",
      "outputs": [
        {
          "internalType": "string",
          "name": "",
          "type": "string"
        }
      ],
      "stateMutability": "view",
      "type": "function"
    },
    {
      "inputs": [
        {
          "internalType": "address",
          "name": "owner",
          "type": "address"
        }
      ],
      "name": "nonces",
      "outputs": [
        {
          "internalType": "uint256",
          "name": "",
          "type": "uint256"
        }
      ],
      "stateMutability": "view",
      "type": "function"
    },
    {
      "inputs": [],
      "name": "owner",
      "outputs": [
        {
          "internalType": "address",
          "name": "",
          "type": "address"
        }
      ],
      "stateMutability": "view",
      "type": "function"
    },
    {
      "inputs": [
        {
          "internalType": "address",
          "name": "owner",
          "type": "address"
        },
        {
          "internalType": "address",
          "name": "spender",
          "type": "address"
        },
        {
          "internalType": "uint256",
          "name": "value",
          "type": "uint256"
        },
        {
          "internalType": "uint256",
          "name": "deadline",
          "type": "uint256"
        },
        {
          "internalType": "uint8",
          "name": "v",
          "type": "uint8"
        },
        {
          "internalType": "bytes32",
          "name": "r",
          "type": "bytes32"
        },
        {
          "internalType": "bytes32",
          "name": "s",
          "type": "bytes32"
        }
      ],
      "name": "permit",
      "outputs": [],
      "stateMutability": "nonpayable",
      "type": "function"
    },
    {
      "inputs": [],
      "name": "renounceOwnership",
      "outputs": [],
      "stateMutability": "nonpayable",
      "type": "function"
    },
    {
      "inputs": [
        {
          "internalType": "uint256",
          "name": "_conversionRate",
          "type": "uint256"
        }
      ],
      "name": "setConversionRate",
      "outputs": [],
      "stateMutability": "nonpayable",
      "type": "function"
    },
    {
      "inputs": [
        {
          "internalType": "uint256",
          "name": "amount",
          "type": "uint256"
        }
      ],
      "name": "swapCTTMToFuel",
      "outputs": [],
      "stateMutability": "nonpayable",
      "type": "function"
    },
    {
      "inputs": [],
      "name": "symbol",
      "outputs": [
        {
          "internalType": "string",
          "name": "",
          "type": "string"
        }
      ],
      "stateMutability": "view",
      "type": "function"
    },
    {
      "inputs": [],
      "name": "totalSupply",
      "outputs": [
        {
          "internalType": "uint256",
          "name": "",
          "type": "uint256"
        }
      ],
      "stateMutability": "view",
      "type": "function"
    },
    {
      "inputs": [
        {
          "internalType": "address",
          "name": "to",
          "type": "address"
        },
        {
          "internalType": "uint256",
          "name": "value",
          "type": "uint256"
        }
      ],
      "name": "transfer",
      "outputs": [
        {
          "internalType": "bool",
          "name": "",
          "type": "bool"
        }
      ],
      "stateMutability": "nonpayable",
      "type": "function"
    },
    {
      "inputs": [
        {
          "internalType": "address",
          "name": "from",
          "type": "address"
        },
        {
          "internalType": "address",
          "name": "to",
          "type": "address"
        },
        {
          "internalType": "uint256",
          "name": "value",
          "type": "uint256"
        }
      ],
      "name": "transferFrom",
      "outputs": [
        {
          "internalType": "bool",
          "name": "",
          "type": "bool"
        }
      ],
      "stateMutability": "nonpayable",
      "type": "function"
    },
    {
      "inputs": [
        {
          "internalType": "address",
          "name": "newOwner",
          "type": "address"
        }
      ],
      "name": "transferOwnership",
      "outputs": [],
      "stateMutability": "nonpayable",
      "type": "function"
    }
  ],
  "bytecode": "0x6101606040523480156200001257600080fd5b50604051620031b3380380620031b3833981810160405281019062000038919062000557565b6040518060400160405280600981526020017f4675656c546f6b656e0000000000000000000000000000000000000000000000815250806040518060400160405280600181526020017f3100000000000000000000000000000000000000000000000000000000000000815250336040518060400160405280600981526020017f4675656c546f6b656e00000000000000000000000000000000000000000000008152506040518060400160405280600481526020017f4655454c0000000000000000000000000000000000000000000000000000000081525081600390816200012391906200080e565b5080600490816200013591906200080e565b505050600073ffffffffffffffffffffffffffffffffffffffff168173ffffffffffffffffffffffffffffffffffffffff1603620001ad5760006040517f1e4fbdf7000000000000000000000000000000000000000000000000000000008152600401620001a4919062000906565b60405180910390fd5b620001be81620002c060201b60201c565b50620001d56006836200038660201b90919060201c565b6101208181525050620001f36007826200038660201b90919060201c565b6101408181525050818051906020012060e08181525050808051906020012061010081815250504660a0818152505062000232620003de60201b60201c565b608081815250503073ffffffffffffffffffffffffffffffffffffffff1660c08173ffffffffffffffffffffffffffffffffffffffff168152505050505081600960006101000a81548173ffffffffffffffffffffffffffffffffffffffff021916908373ffffffffffffffffffffffffffffffffffffffff16021790555080600a81905550505062000b01565b6000600560009054906101000a900473ffffffffffffffffffffffffffffffffffffffff16905081600560006101000a81548173ffffffffffffffffffffffffffffffffffffffff021916908373ffffffffffffffffffffffffffffffffffffffff1602179055508173ffffffffffffffffffffffffffffffffffffffff168173ffffffffffffffffffffffffffffffffffffffff167f8be0079c531659141344cd1fd0a4f28419497f9722a3daafe3b4186f6b6457e060405160405180910390a35050565b6000602083511015620003ac57620003a4836200043b60201b60201c565b9050620003d8565b82620003be83620004a860201b60201c565b6000019081620003cf91906200080e565b5060ff60001b90505b92915050565b60007f8b73c3c69bb8fe3d512ecc4cf759cc79239f7b179b0ffacaa9a75d522b39400f60e051610100514630604051602001620004209594939291906200094f565b60405160208183030381529060405280519060200120905090565b600080829050601f815111156200048b57826040517f305a27a900000000000000000000000000000000000000000000000000000000815260040162000482919062000a3b565b60405180910390fd5b805181620004999062000a91565b60001c1760001b915050919050565b6000819050919050565b600080fd5b600073ffffffffffffffffffffffffffffffffffffffff82169050919050565b6000620004e482620004b7565b9050919050565b620004f681620004d7565b81146200050257600080fd5b50565b6000815190506200051681620004eb565b92915050565b6000819050919050565b62000531816200051c565b81146200053d57600080fd5b50565b600081519050620005518162000526565b92915050565b60008060408385031215620005715762000570620004b2565b5b6000620005818582860162000505565b9250506020620005948582860162000540565b9150509250929050565b600081519050919050565b7f4e487b7100000000000000000000000000000000000000000000000000000000600052604160045260246000fd5b7f4e487b7100000000000000000000000000000000000000000000000000000000600052602260045260246000fd5b600060028204905060018216806200062057607f821691505b602082108103620006365762000635620005d8565b5b50919050565b60008190508160005260206000209050919050565b60006020601f8301049050919050565b600082821b905092915050565b600060088302620006a07fffffffffffffffffffffffffffffffffffffffffffffffffffffffffffffffff8262000661565b620006ac868362000661565b95508019841693508086168417925050509392505050565b6000819050919050565b6000620006ef620006e9620006e3846200051c565b620006c4565b6200051c565b9050919050565b6000819050919050565b6200070b83620006ce565b620007236200071a82620006f6565b8484546200066e565b825550505050565b600090565b6200073a6200072b565b6200074781848462000700565b505050565b5b818110156200076f576200076360008262000730565b6001810190506200074d565b5050565b601f821115620007be5762000788816200063c565b620007938462000651565b81016020851015620007a3578190505b620007bb620007b28562000651565b8301826200074c565b50505b505050565b600082821c905092915050565b6000620007e360001984600802620007c3565b1980831691505092915050565b6000620007fe8383620007d0565b9150826002028217905092915050565b62000819826200059e565b67ffffffffffffffff811115620008355762000834620005a9565b5b62000841825462000607565b6200084e82828562000773565b600060209050601f83116001811462000886576000841562000871578287015190505b6200087d8582620007f0565b865550620008ed565b601f19841662000896866200063c565b60005b82811015620008c05784890151825560018201915060208501945060208101905062000899565b86831015620008e05784890151620008dc601f891682620007d0565b8355505b6001600288020188555050505b505050505050565b6200090081620004d7565b82525050565b60006020820190506200091d6000830184620008f5565b92915050565b6000819050919050565b620009388162000923565b82525050565b62000949816200051c565b82525050565b600060a0820190506200096660008301886200092d565b6200097560208301876200092d565b6200098460408301866200092d565b6200099360608301856200093e565b620009a26080830184620008f5565b9695505050505050565b600082825260208201905092915050565b60005b83811015620009dd578082015181840152602081019050620009c0565b60008484015250505050565b6000601f19601f8301169050919050565b600062000a07826200059e565b62000a138185620009ac565b935062000a25818560208601620009bd565b62000a3081620009e9565b840191505092915050565b6000602082019050818103600083015262000a578184620009fa565b905092915050565b600081519050919050565b6000819050602082019050919050565b600062000a88825162000923565b80915050919050565b600062000a9e8262000a5f565b8262000aaa8462000a6a565b905062000ab78162000a7a565b9250602082101562000afa5762000af57fffffffffffffffffffffffffffffffffffffffffffffffffffffffffffffffff8360200360080262000661565b831692505b5050919050565b60805160a05160c05160e05161010051610120516101405161265762000b5c600039600061121e015260006111e3015260006117330152600061171201526000610e8d01526000610ee301526000610f0c01526126576000f3fe608060405234801561001057600080fd5b50600436106101425760003560e01c80637ecebe00116100b8578063a077a13c1161007c578063a077a13c1461035b578063a9059cbb14610377578063d2e80494146103a7578063d505accf146103c3578063dd62ed3e146103df578063f2fde38b1461040f57610142565b80637ecebe00146102ad5780637ffdf53e146102dd57806384b0196e146102fb5780638da5cb5b1461031f57806395d89b411461033d57610142565b80633644e5151161010a5780633644e5151461020157806340c10f191461021f57806342966c681461023b57806370a0823114610257578063715018a61461028757806379cc67901461029157610142565b806306fdde0314610147578063095ea7b31461016557806318160ddd1461019557806323b872dd146101b3578063313ce567146101e3575b600080fd5b61014f61042b565b60405161015c9190611c20565b60405180910390f35b61017f600480360381019061017a9190611cdb565b6104bd565b60405161018c9190611d36565b60405180910390f35b61019d6104e0565b6040516101aa9190611d60565b60405180910390f35b6101cd60048036038101906101c89190611d7b565b6104ea565b6040516101da9190611d36565b60405180910390f35b6101eb610519565b6040516101f89190611dea565b60405180910390f35b610209610522565b6040516102169190611e1e565b60405180910390f35b61023960048036038101906102349190611cdb565b610531565b005b61025560048036038101906102509190611e39565b610547565b005b610271600480360381019061026c9190611e66565b61055b565b60405161027e9190611d60565b60405180910390f35b61028f6105a3565b005b6102ab60048036038101906102a69190611cdb565b6105b7565b005b6102c760048036038101906102c29190611e66565b6105d7565b6040516102d49190611d60565b60405180910390f35b6102e56105e9565b6040516102f29190611d60565b60405180910390f35b6103036105ef565b6040516103169796959493929190611f9b565b60405180910390f35b610327610699565b604051610334919061201f565b60405180910390f35b6103456106c3565b6040516103529190611c20565b60405180910390f35b61037560048036038101906103709190611e39565b610755565b005b610391600480360381019061038c9190611cdb565b610a26565b60405161039e9190611d36565b60405180910390f35b6103c160048036038101906103bc9190611e39565b610a49565b005b6103dd60048036038101906103d89190612092565b610a92565b005b6103f960048036038101906103f49190612134565b610bda565b6040516104069190611d60565b60405180910390f35b61042960048036038101906104249190611e66565b610c61565b005b60606003805461043a906121a3565b80601f0160208091040260200160405190810160405280929190818152602001828054610466906121a3565b80156104b35780601f10610488576101008083540402835291602001916104b3565b820191906000526020600020905b81548152906001019060200180831161049657829003601f168201915b5050505050905090565b6000806104c8610ce7565b90506104d5818585610cef565b600191505092915050565b6000600254905090565b6000806104f5610ce7565b9050610502858285610d01565b61050d858585610d95565b60019150509392505050565b60006012905090565b600061052c610e89565b905090565b610539610f40565b6105438282610fc7565b5050565b610558610552610ce7565b82611049565b50565b60008060008373ffffffffffffffffffffffffffffffffffffffff1673ffffffffffffffffffffffffffffffffffffffff168152602001908152602001600020549050919050565b6105ab610f40565b6105b560006110cb565b565b6105c9826105c3610ce7565b83610d01565b6105d38282611049565b5050565b60006105e282611191565b9050919050565b600a5481565b6000606080600080600060606106036111da565b61060b611215565b46306000801b600067ffffffffffffffff81111561062c5761062b6121d4565b5b60405190808252806020026020018201604052801561065a5781602001602082028036833780820191505090505b507f0f00000000000000000000000000000000000000000000000000000000000000959493929190965096509650965096509650965090919293949596565b6000600560009054906101000a900473ffffffffffffffffffffffffffffffffffffffff16905090565b6060600480546106d2906121a3565b80601f01602080910402602001604051908101604052809291908181526020018280546106fe906121a3565b801561074b5780601f106107205761010080835404028352916020019161074b565b820191906000526020600020905b81548152906001019060200180831161072e57829003601f168201915b5050505050905090565b80600960009054906101000a900473ffffffffffffffffffffffffffffffffffffffff1673ffffffffffffffffffffffffffffffffffffffff166370a08231336040518263ffffffff1660e01b81526004016107b1919061201f565b602060405180830381865afa1580156107ce573d6000803e3d6000fd5b505050506040513d601f19601f820116820180604052508101906107f29190612218565b1015610833576040517f08c379a000000000000000000000000000000000000000000000000000000000815260040161082a90612291565b60405180910390fd5b80600960009054906101000a900473ffffffffffffffffffffffffffffffffffffffff1673ffffffffffffffffffffffffffffffffffffffff1663dd62ed3e33306040518363ffffffff1660e01b81526004016108919291906122b1565b602060405180830381865afa1580156108ae573d6000803e3d6000fd5b505050506040513d601f19601f820116820180604052508101906108d29190612218565b1015610913576040517f08c379a000000000000000000000000000000000000000000000000000000000815260040161090a90612326565b60405180910390fd5b600960009054906101000a900473ffffffffffffffffffffffffffffffffffffffff1673ffffffffffffffffffffffffffffffffffffffff166323b872dd3330846040518463ffffffff1660e01b815260040161097293929190612346565b6020604051808303816000875af1158015610991573d6000803e3d6000fd5b505050506040513d601f19601f820116820180604052508101906109b591906123a9565b506000600a54826109c69190612434565b90506109d23382610fc7565b3373ffffffffffffffffffffffffffffffffffffffff167f77f92a1b6a1a11de8ca49515ad4c1fad45632dd3442167d74b90b304a3c7a7588383604051610a1a929190612465565b60405180910390a25050565b600080610a31610ce7565b9050610a3e818585610d95565b600191505092915050565b610a51610f40565b80600a819055507f0b6eb270e68ec2b65cffce354325dcd6cb2449e0e8fec1184cd58da0c7b0344b81604051610a879190611d60565b60405180910390a150565b83421115610ad757836040517f62791302000000000000000000000000000000000000000000000000000000008152600401610ace9190611d60565b60405180910390fd5b60007f6e71edae12b1b97f4d1f60370fef10105fa2faae0126114a169c64845d6126c9888888610b068c611250565b89604051602001610b1c9695949392919061248e565b6040516020818303038152906040528051906020012090506000610b3f826112a7565b90506000610b4f828787876112c1565b90508973ffffffffffffffffffffffffffffffffffffffff168173ffffffffffffffffffffffffffffffffffffffff1614610bc357808a6040517f4b800e46000000000000000000000000000000000000000000000000000000008152600401610bba9291906122b1565b60405180910390fd5b610bce8a8a8a610cef565b50505050505050505050565b6000600160008473ffffffffffffffffffffffffffffffffffffffff1673ffffffffffffffffffffffffffffffffffffffff16815260200190815260200160002060008373ffffffffffffffffffffffffffffffffffffffff1673ffffffffffffffffffffffffffffffffffffffff16815260200190815260200160002054905092915050565b610c69610f40565b600073ffffffffffffffffffffffffffffffffffffffff168173ffffffffffffffffffffffffffffffffffffffff1603610cdb5760006040517f1e4fbdf7000000000000000000000000000000000000000000000000000000008152600401610cd2919061201f565b60405180910390fd5b610ce4816110cb565b50565b600033905090565b610cfc83838360016112f1565b505050565b6000610d0d8484610bda565b90507fffffffffffffffffffffffffffffffffffffffffffffffffffffffffffffffff8114610d8f5781811015610d7f578281836040517ffb8f41b2000000000000000000000000000000000000000000000000000000008152600401610d76939291906124ef565b60405180910390fd5b610d8e848484840360006112f1565b5b50505050565b600073ffffffffffffffffffffffffffffffffffffffff168373ffffffffffffffffffffffffffffffffffffffff1603610e075760006040517f96c6fd1e000000000000000000000000000000000000000000000000000000008152600401610dfe919061201f565b60405180910390fd5b600073ffffffffffffffffffffffffffffffffffffffff168273ffffffffffffffffffffffffffffffffffffffff1603610e795760006040517fec442f05000000000000000000000000000000000000000000000000000000008152600401610e70919061201f565b60405180910390fd5b610e848383836114c8565b505050565b60007f000000000000000000000000000000000000000000000000000000000000000073ffffffffffffffffffffffffffffffffffffffff163073ffffffffffffffffffffffffffffffffffffffff16148015610f0557507f000000000000000000000000000000000000000000000000000000000000000046145b15610f32577f00000000000000000000000000000000000000000000000000000000000000009050610f3d565b610f3a6116ed565b90505b90565b610f48610ce7565b73ffffffffffffffffffffffffffffffffffffffff16610f66610699565b73ffffffffffffffffffffffffffffffffffffffff1614610fc557610f89610ce7565b6040517f118cdaa7000000000000000000000000000000000000000000000000000000008152600401610fbc919061201f565b60405180910390fd5b565b600073ffffffffffffffffffffffffffffffffffffffff168273ffffffffffffffffffffffffffffffffffffffff16036110395760006040517fec442f05000000000000000000000000000000000000000000000000000000008152600401611030919061201f565b60405180910390fd5b611045600083836114c8565b5050565b600073ffffffffffffffffffffffffffffffffffffffff168273ffffffffffffffffffffffffffffffffffffffff16036110bb5760006040517f96c6fd1e0000000000000000000000000000000000000000000000000000000081526004016110b2919061201f565b60405180910390fd5b6110c7826000836114c8565b5050565b6000600560009054906101000a900473ffffffffffffffffffffffffffffffffffffffff16905081600560006101000a81548173ffffffffffffffffffffffffffffffffffffffff021916908373ffffffffffffffffffffffffffffffffffffffff1602179055508173ffffffffffffffffffffffffffffffffffffffff168173ffffffffffffffffffffffffffffffffffffffff167f8be0079c531659141344cd1fd0a4f28419497f9722a3daafe3b4186f6b6457e060405160405180910390a35050565b6000600860008373ffffffffffffffffffffffffffffffffffffffff1673ffffffffffffffffffffffffffffffffffffffff168152602001908152602001600020549050919050565b606061121060067f000000000000000000000000000000000000000000000000000000000000000061178390919063ffffffff16565b905090565b606061124b60077f000000000000000000000000000000000000000000000000000000000000000061178390919063ffffffff16565b905090565b6000600860008373ffffffffffffffffffffffffffffffffffffffff1673ffffffffffffffffffffffffffffffffffffffff1681526020019081526020016000206000815480929190600101919050559050919050565b60006112ba6112b4610e89565b83611833565b9050919050565b6000806000806112d388888888611874565b9250925092506112e38282611968565b829350505050949350505050565b600073ffffffffffffffffffffffffffffffffffffffff168473ffffffffffffffffffffffffffffffffffffffff16036113635760006040517fe602df0500000000000000000000000000000000000000000000000000000000815260040161135a919061201f565b60405180910390fd5b600073ffffffffffffffffffffffffffffffffffffffff168373ffffffffffffffffffffffffffffffffffffffff16036113d55760006040517f94280d620000000000000000000000000000000000000000000000000000000081526004016113cc919061201f565b60405180910390fd5b81600160008673ffffffffffffffffffffffffffffffffffffffff1673ffffffffffffffffffffffffffffffffffffffff16815260200190815260200160002060008573ffffffffffffffffffffffffffffffffffffffff1673ffffffffffffffffffffffffffffffffffffffff1681526020019081526020016000208190555080156114c2578273ffffffffffffffffffffffffffffffffffffffff168473ffffffffffffffffffffffffffffffffffffffff167f8c5be1e5ebec7d5bd14f71427d1e84f3dd0314c0f7b2291e5b200ac8c7c3b925846040516114b99190611d60565b60405180910390a35b50505050565b600073ffffffffffffffffffffffffffffffffffffffff168373ffffffffffffffffffffffffffffffffffffffff160361151a57806002600082825461150e9190612526565b925050819055506115ed565b60008060008573ffffffffffffffffffffffffffffffffffffffff1673ffffffffffffffffffffffffffffffffffffffff168152602001908152602001600020549050818110156115a6578381836040517fe450d38c00000000000000000000000000000000000000000000000000000000815260040161159d939291906124ef565b60405180910390fd5b8181036000808673ffffffffffffffffffffffffffffffffffffffff1673ffffffffffffffffffffffffffffffffffffffff16815260200190815260200160002081905550505b600073ffffffffffffffffffffffffffffffffffffffff168273ffffffffffffffffffffffffffffffffffffffff16036116365780600260008282540392505081905550611683565b806000808473ffffffffffffffffffffffffffffffffffffffff1673ffffffffffffffffffffffffffffffffffffffff168152602001908152602001600020600082825401925050819055505b8173ffffffffffffffffffffffffffffffffffffffff168373ffffffffffffffffffffffffffffffffffffffff167fddf252ad1be2c89b69c2b068fc378daa952ba7f163c4a11628f55a4df523b3ef836040516116e09190611d60565b60405180910390a3505050565b60007f8b73c3c69bb8fe3d512ecc4cf759cc79239f7b179b0ffacaa9a75d522b39400f7f00000000000000000000000000000000000000000000000000000000000000007f0000000000000000000000000000000000000000000000000000000000000000463060405160200161176895949392919061255a565b60405160208183030381529060405280519060200120905090565b606060ff60001b83146117a05761179983611acc565b905061182d565b8180546117ac906121a3565b80601f01602080910402602001604051908101604052809291908181526020018280546117d8906121a3565b80156118255780601f106117fa57610100808354040283529160200191611825565b820191906000526020600020905b81548152906001019060200180831161180857829003601f168201915b505050505090505b92915050565b60006040517f190100000000000000000000000000000000000000000000000000000000000081528360028201528260228201526042812091505092915050565b60008060007f7fffffffffffffffffffffffffffffff5d576e7357a4501ddfe92f46681b20a08460001c11156118b457600060038592509250925061195e565b6000600188888888604051600081526020016040526040516118d994939291906125ad565b6020604051602081039080840390855afa1580156118fb573d6000803e3d6000fd5b505050602060405103519050600073ffffffffffffffffffffffffffffffffffffffff168173ffffffffffffffffffffffffffffffffffffffff160361194f57600060016000801b9350935093505061195e565b8060008060001b935093509350505b9450945094915050565b6000600381111561197c5761197b6125f2565b5b82600381111561198f5761198e6125f2565b5b0315611ac857600160038111156119a9576119a86125f2565b5b8260038111156119bc576119bb6125f2565b5b036119f3576040517ff645eedf00000000000000000000000000000000000000000000000000000000815260040160405180910390fd5b60026003811115611a0757611a066125f2565b5b826003811115611a1a57611a196125f2565b5b03611a5f578060001c6040517ffce698f7000000000000000000000000000000000000000000000000000000008152600401611a569190611d60565b60405180910390fd5b600380811115611a7257611a716125f2565b5b826003811115611a8557611a846125f2565b5b03611ac757806040517fd78bce0c000000000000000000000000000000000000000000000000000000008152600401611abe9190611e1e565b60405180910390fd5b5b5050565b60606000611ad983611b40565b90506000602067ffffffffffffffff811115611af857611af76121d4565b5b6040519080825280601f01601f191660200182016040528015611b2a5781602001600182028036833780820191505090505b5090508181528360208201528092505050919050565b60008060ff8360001c169050601f811115611b87576040517fb3512b0c00000000000000000000000000000000000000000000000000000000815260040160405180910390fd5b80915050919050565b600081519050919050565b600082825260208201905092915050565b60005b83811015611bca578082015181840152602081019050611baf565b60008484015250505050565b6000601f19601f8301169050919050565b6000611bf282611b90565b611bfc8185611b9b565b9350611c0c818560208601611bac565b611c1581611bd6565b840191505092915050565b60006020820190508181036000830152611c3a8184611be7565b905092915050565b600080fd5b600073ffffffffffffffffffffffffffffffffffffffff82169050919050565b6000611c7282611c47565b9050919050565b611c8281611c67565b8114611c8d57600080fd5b50565b600081359050611c9f81611c79565b92915050565b6000819050919050565b611cb881611ca5565b8114611cc357600080fd5b50565b600081359050611cd581611caf565b92915050565b60008060408385031215611cf257611cf1611c42565b5b6000611d0085828601611c90565b9250506020611d1185828601611cc6565b9150509250929050565b60008115159050919050565b611d3081611d1b565b82525050565b6000602082019050611d4b6000830184611d27565b92915050565b611d5a81611ca5565b82525050565b6000602082019050611d756000830184611d51565b92915050565b600080600060608486031215611d9457611d93611c42565b5b6000611da286828701611c90565b9350506020611db386828701611c90565b9250506040611dc486828701611cc6565b9150509250925092565b600060ff82169050919050565b611de481611dce565b82525050565b6000602082019050611dff6000830184611ddb565b92915050565b6000819050919050565b611e1881611e05565b82525050565b6000602082019050611e336000830184611e0f565b92915050565b600060208284031215611e4f57611e4e611c42565b5b6000611e5d84828501611cc6565b91505092915050565b600060208284031215611e7c57611e7b611c42565b5b6000611e8a84828501611c90565b91505092915050565b60007fff0000000000000000000000000000000000000000000000000000000000000082169050919050565b611ec881611e93565b82525050565b611ed781611c67565b82525050565b600081519050919050565b600082825260208201905092915050565b6000819050602082019050919050565b611f1281611ca5565b82525050565b6000611f248383611f09565b60208301905092915050565b6000602082019050919050565b6000611f4882611edd565b611f528185611ee8565b9350611f5d83611ef9565b8060005b83811015611f8e578151611f758882611f18565b9750611f8083611f30565b925050600181019050611f61565b5085935050505092915050565b600060e082019050611fb0600083018a611ebf565b8181036020830152611fc28189611be7565b90508181036040830152611fd68188611be7565b9050611fe56060830187611d51565b611ff26080830186611ece565b611fff60a0830185611e0f565b81810360c08301526120118184611f3d565b905098975050505050505050565b60006020820190506120346000830184611ece565b92915050565b61204381611dce565b811461204e57600080fd5b50565b6000813590506120608161203a565b92915050565b61206f81611e05565b811461207a57600080fd5b50565b60008135905061208c81612066565b92915050565b600080600080600080600060e0888a0312156120b1576120b0611c42565b5b60006120bf8a828b01611c90565b97505060206120d08a828b01611c90565b96505060406120e18a828b01611cc6565b95505060606120f28a828b01611cc6565b94505060806121038a828b01612051565b93505060a06121148a828b0161207d565b92505060c06121258a828b0161207d565b91505092959891949750929550565b6000806040838503121561214b5761214a611c42565b5b600061215985828601611c90565b925050602061216a85828601611c90565b9150509250929050565b7f4e487b7100000000000000000000000000000000000000000000000000000000600052602260045260246000fd5b600060028204905060018216806121bb57607f821691505b6020821081036121ce576121cd612174565b5b50919050565b7f4e487b7100000000000000000000000000000000000000000000000000000000600052604160045260246000fd5b60008151905061221281611caf565b92915050565b60006020828403121561222e5761222d611c42565b5b600061223c84828501612203565b91505092915050565b7f4e6f7420656e6f75676874204354544d20546f6b656e2e000000000000000000600082015250565b600061227b601783611b9b565b915061228682612245565b602082019050919050565b600060208201905081810360008301526122aa8161226e565b9050919050565b60006040820190506122c66000830185611ece565b6122d36020830184611ece565b9392505050565b7f4e6f7420656e6f7567687420616c6c6f77616e63650000000000000000000000600082015250565b6000612310601583611b9b565b915061231b826122da565b602082019050919050565b6000602082019050818103600083015261233f81612303565b9050919050565b600060608201905061235b6000830186611ece565b6123686020830185611ece565b6123756040830184611d51565b949350505050565b61238681611d1b565b811461239157600080fd5b50565b6000815190506123a38161237d565b92915050565b6000602082840312156123bf576123be611c42565b5b60006123cd84828501612394565b91505092915050565b7f4e487b7100000000000000000000000000000000000000000000000000000000600052601260045260246000fd5b7f4e487b7100000000000000000000000000000000000000000000000000000000600052601160045260246000fd5b600061243f82611ca5565b915061244a83611ca5565b92508261245a576124596123d6565b5b828204905092915050565b600060408201905061247a6000830185611d51565b6124876020830184611d51565b9392505050565b600060c0820190506124a36000830189611e0f565b6124b06020830188611ece565b6124bd6040830187611ece565b6124ca6060830186611d51565b6124d76080830185611d51565b6124e460a0830184611d51565b979650505050505050565b60006060820190506125046000830186611ece565b6125116020830185611d51565b61251e6040830184611d51565b949350505050565b600061253182611ca5565b915061253c83611ca5565b925082820190508082111561255457612553612405565b5b92915050565b600060a08201905061256f6000830188611e0f565b61257c6020830187611e0f565b6125896040830186611e0f565b6125966060830185611d51565b6125a36080830184611ece565b9695505050505050565b60006080820190506125c26000830187611e0f565b6125cf6020830186611ddb565b6125dc6040830185611e0f565b6125e96060830184611e0f565b95945050505050565b7f4e487b7100000000000000000000000000000000000000000000000000000000600052602160045260246000fdfea2646970667358221220df23e26892148b5aa16b2c8d8067c6464ee8e8b567659c33fe08b308b27b7ac864736f6c63430008180033",
  "linkReferences": {},
  "deployedLinkReferences": {}
}