{
  "_format": "hh-sol-artifact-1",
  "contractName": "Rocket",
  "sourceName": "contracts/Rocket.sol",
  "abi": [
    {
      "inputs": [
        {
          "internalType": "string",
          "name": "_name",
          "type": "string"
        },
        {
          "internalType": "uint256",
          "name": "_goal",
          "type": "uint256"
        },
        {
          "internalType": "uint256",
          "name": "_distancePerFuel",
          "type": "uint256"
        },
        {
          "internalType": "address",
          "name": "_fuelTokenAddress",
          "type": "address"
        }
      ],
      "stateMutability": "nonpayable",
      "type": "constructor"
    },
    {
      "anonymous": false,
      "inputs": [
        {
          "indexed": false,
          "internalType": "address",
          "name": "rocketOperator",
          "type": "address"
        },
        {
          "indexed": false,
          "internalType": "uint256",
          "name": "newAltitude",
          "type": "uint256"
        }
      ],
      "name": "RocketMove",
      "type": "event"
    },
    {
      "inputs": [],
      "name": "currentAltitude",
      "outputs": [
        {
          "internalType": "uint256",
          "name": "",
          "type": "uint256"
        }
      ],
      "stateMutability": "view",
      "type": "function"
    },
    {
      "inputs": [],
      "name": "distancePerFuel",
      "outputs": [
        {
          "internalType": "uint256",
          "name": "",
          "type": "uint256"
        }
      ],
      "stateMutability": "view",
      "type": "function"
    },
    {
      "inputs": [],
      "name": "fuelToken",
      "outputs": [
        {
          "internalType": "contract IERC20",
          "name": "",
          "type": "address"
        }
      ],
      "stateMutability": "view",
      "type": "function"
    },
    {
      "inputs": [
        {
          "internalType": "uint256",
          "name": "fuelAmount",
          "type": "uint256"
        }
      ],
      "name": "giveFuel",
      "outputs": [],
      "stateMutability": "nonpayable",
      "type": "function"
    },
    {
      "inputs": [],
      "name": "goal",
      "outputs": [
        {
          "internalType": "uint256",
          "name": "",
          "type": "uint256"
        }
      ],
      "stateMutability": "view",
      "type": "function"
    },
    {
      "inputs": [],
      "name": "name",
      "outputs": [
        {
          "internalType": "string",
          "name": "",
          "type": "string"
        }
      ],
      "stateMutability": "view",
      "type": "function"
    },
    {
      "inputs": [
        {
          "internalType": "address",
          "name": "",
          "type": "address"
        }
      ],
      "name": "points",
      "outputs": [
        {
          "internalType": "uint256",
          "name": "",
          "type": "uint256"
        }
      ],
      "stateMutability": "view",
      "type": "function"
    },
    {
      "inputs": [
        {
          "internalType": "uint256",
          "name": "_distancePerFuel",
          "type": "uint256"
        }
      ],
      "name": "setFuelEficiency",
      "outputs": [],
      "stateMutability": "nonpayable",
      "type": "function"
    }
  ],
  "bytecode": "0x60806040523480156200001157600080fd5b506040516200173238038062001732833981810160405281019062000037919062000414565b600083116200007d576040517f08c379a0000000000000000000000000000000000000000000000000000000008152600401620000749062000506565b60405180910390fd5b60008211620000c3576040517f08c379a0000000000000000000000000000000000000000000000000000000008152600401620000ba9062000578565b60405180910390fd5b600073ffffffffffffffffffffffffffffffffffffffff168173ffffffffffffffffffffffffffffffffffffffff160362000135576040517f08c379a00000000000000000000000000000000000000000000000000000000081526004016200012c90620005ea565b60405180910390fd5b83600090816200014691906200084d565b50826001819055508160038190555080600560006101000a81548173ffffffffffffffffffffffffffffffffffffffff021916908373ffffffffffffffffffffffffffffffffffffffff16021790555033600660006101000a81548173ffffffffffffffffffffffffffffffffffffffff021916908373ffffffffffffffffffffffffffffffffffffffff1602179055505050505062000934565b6000604051905090565b600080fd5b600080fd5b600080fd5b600080fd5b6000601f19601f8301169050919050565b7f4e487b7100000000000000000000000000000000000000000000000000000000600052604160045260246000fd5b6200024a82620001ff565b810181811067ffffffffffffffff821117156200026c576200026b62000210565b5b80604052505050565b600062000281620001e1565b90506200028f82826200023f565b919050565b600067ffffffffffffffff821115620002b257620002b162000210565b5b620002bd82620001ff565b9050602081019050919050565b60005b83811015620002ea578082015181840152602081019050620002cd565b60008484015250505050565b60006200030d620003078462000294565b62000275565b9050828152602081018484840111156200032c576200032b620001fa565b5b62000339848285620002ca565b509392505050565b600082601f830112620003595762000358620001f5565b5b81516200036b848260208601620002f6565b91505092915050565b6000819050919050565b620003898162000374565b81146200039557600080fd5b50565b600081519050620003a9816200037e565b92915050565b600073ffffffffffffffffffffffffffffffffffffffff82169050919050565b6000620003dc82620003af565b9050919050565b620003ee81620003cf565b8114620003fa57600080fd5b50565b6000815190506200040e81620003e3565b92915050565b60008060008060808587031215620004315762000430620001eb565b5b600085015167ffffffffffffffff811115620004525762000451620001f0565b5b620004608782880162000341565b9450506020620004738782880162000398565b9350506040620004868782880162000398565b92505060606200049987828801620003fd565b91505092959194509250565b600082825260208201905092915050565b7f476f616c2063616e6e6f74206265207a65726f2e000000000000000000000000600082015250565b6000620004ee601483620004a5565b9150620004fb82620004b6565b602082019050919050565b600060208201905081810360008301526200052181620004df565b9050919050565b7f556e69742070726963652063616e6e6f74206265207a65726f2e000000000000600082015250565b600062000560601a83620004a5565b91506200056d8262000528565b602082019050919050565b60006020820190508181036000830152620005938162000551565b9050919050565b7f496e76616c696420746f6b656e20616464726573732e00000000000000000000600082015250565b6000620005d2601683620004a5565b9150620005df826200059a565b602082019050919050565b600060208201905081810360008301526200060581620005c3565b9050919050565b600081519050919050565b7f4e487b7100000000000000000000000000000000000000000000000000000000600052602260045260246000fd5b600060028204905060018216806200065f57607f821691505b60208210810362000675576200067462000617565b5b50919050565b60008190508160005260206000209050919050565b60006020601f8301049050919050565b600082821b905092915050565b600060088302620006df7fffffffffffffffffffffffffffffffffffffffffffffffffffffffffffffffff82620006a0565b620006eb8683620006a0565b95508019841693508086168417925050509392505050565b6000819050919050565b60006200072e62000728620007228462000374565b62000703565b62000374565b9050919050565b6000819050919050565b6200074a836200070d565b62000762620007598262000735565b848454620006ad565b825550505050565b600090565b620007796200076a565b620007868184846200073f565b505050565b5b81811015620007ae57620007a26000826200076f565b6001810190506200078c565b5050565b601f821115620007fd57620007c7816200067b565b620007d28462000690565b81016020851015620007e2578190505b620007fa620007f18562000690565b8301826200078b565b50505b505050565b600082821c905092915050565b6000620008226000198460080262000802565b1980831691505092915050565b60006200083d83836200080f565b9150826002028217905092915050565b62000858826200060c565b67ffffffffffffffff81111562000874576200087362000210565b5b62000880825462000646565b6200088d828285620007b2565b600060209050601f831160018114620008c55760008415620008b0578287015190505b620008bc85826200082f565b8655506200092c565b601f198416620008d5866200067b565b60005b82811015620008ff57848901518255600182019150602085019450602081019050620008d8565b868310156200091f57848901516200091b601f8916826200080f565b8355505b6001600288020188555050505b505050505050565b610dee80620009446000396000f3fe608060405234801561001057600080fd5b50600436106100885760003560e01c80639f077e061161005b5780639f077e0614610117578063b5696e1314610133578063d88862ad1461014f578063f532c6651461016d57610088565b806306fdde031461008d57806308cf61f5146100ab578063358b8166146100c957806340193883146100f9575b600080fd5b61009561018b565b6040516100a2919061074d565b60405180910390f35b6100b3610219565b6040516100c09190610788565b60405180910390f35b6100e360048036038101906100de9190610806565b61021f565b6040516100f09190610788565b60405180910390f35b610101610237565b60405161010e9190610788565b60405180910390f35b610131600480360381019061012c919061085f565b61023d565b005b61014d6004803603810190610148919061085f565b610620565b005b610157610691565b60405161016491906108eb565b60405180910390f35b6101756106b7565b6040516101829190610788565b60405180910390f35b6000805461019890610935565b80601f01602080910402602001604051908101604052809291908181526020018280546101c490610935565b80156102115780601f106101e657610100808354040283529160200191610211565b820191906000526020600020905b8154815290600101906020018083116101f457829003601f168201915b505050505081565b60035481565b60046020528060005260406000206000915090505481565b60015481565b60015460025410610283576040517f08c379a000000000000000000000000000000000000000000000000000000000815260040161027a906109b2565b60405180910390fd5b670de0b6b3a764000081116102cd576040517f08c379a00000000000000000000000000000000000000000000000000000000081526004016102c490610a1e565b60405180910390fd5b6000600354670de0b6b3a7640000836102e69190610a9c565b6102f09190610acd565b9050600154816002546103039190610b0f565b1115610344576040517f08c379a000000000000000000000000000000000000000000000000000000000815260040161033b90610b8f565b60405180910390fd5b81600560009054906101000a900473ffffffffffffffffffffffffffffffffffffffff1673ffffffffffffffffffffffffffffffffffffffff166370a08231336040518263ffffffff1660e01b81526004016103a09190610bbe565b602060405180830381865afa1580156103bd573d6000803e3d6000fd5b505050506040513d601f19601f820116820180604052508101906103e19190610bee565b1015610422576040517f08c379a000000000000000000000000000000000000000000000000000000000815260040161041990610c67565b60405180910390fd5b81600560009054906101000a900473ffffffffffffffffffffffffffffffffffffffff1673ffffffffffffffffffffffffffffffffffffffff1663dd62ed3e33306040518363ffffffff1660e01b8152600401610480929190610c87565b602060405180830381865afa15801561049d573d6000803e3d6000fd5b505050506040513d601f19601f820116820180604052508101906104c19190610bee565b1015610502576040517f08c379a00000000000000000000000000000000000000000000000000000000081526004016104f990610cfc565b60405180910390fd5b600560009054906101000a900473ffffffffffffffffffffffffffffffffffffffff1673ffffffffffffffffffffffffffffffffffffffff166323b872dd3330856040518463ffffffff1660e01b815260040161056193929190610d1c565b6020604051808303816000875af1158015610580573d6000803e3d6000fd5b505050506040513d601f19601f820116820180604052508101906105a49190610d8b565b6105ad57600080fd5b80600260008282546105bf9190610b0f565b9250508190555080600460003373ffffffffffffffffffffffffffffffffffffffff1673ffffffffffffffffffffffffffffffffffffffff16815260200190815260200160002060008282546106159190610b0f565b925050819055505050565b600660009054906101000a900473ffffffffffffffffffffffffffffffffffffffff1673ffffffffffffffffffffffffffffffffffffffff163373ffffffffffffffffffffffffffffffffffffffff161461067a57600080fd5b6000811161068757600080fd5b8060038190555050565b600560009054906101000a900473ffffffffffffffffffffffffffffffffffffffff1681565b60025481565b600081519050919050565b600082825260208201905092915050565b60005b838110156106f75780820151818401526020810190506106dc565b60008484015250505050565b6000601f19601f8301169050919050565b600061071f826106bd565b61072981856106c8565b93506107398185602086016106d9565b61074281610703565b840191505092915050565b600060208201905081810360008301526107678184610714565b905092915050565b6000819050919050565b6107828161076f565b82525050565b600060208201905061079d6000830184610779565b92915050565b600080fd5b600073ffffffffffffffffffffffffffffffffffffffff82169050919050565b60006107d3826107a8565b9050919050565b6107e3816107c8565b81146107ee57600080fd5b50565b600081359050610800816107da565b92915050565b60006020828403121561081c5761081b6107a3565b5b600061082a848285016107f1565b91505092915050565b61083c8161076f565b811461084757600080fd5b50565b60008135905061085981610833565b92915050565b600060208284031215610875576108746107a3565b5b60006108838482850161084a565b91505092915050565b6000819050919050565b60006108b16108ac6108a7846107a8565b61088c565b6107a8565b9050919050565b60006108c382610896565b9050919050565b60006108d5826108b8565b9050919050565b6108e5816108ca565b82525050565b600060208201905061090060008301846108dc565b92915050565b7f4e487b7100000000000000000000000000000000000000000000000000000000600052602260045260246000fd5b6000600282049050600182168061094d57607f821691505b6020821081036109605761095f610906565b5b50919050565b7f526f636b657420686173206c616e6465642e0000000000000000000000000000600082015250565b600061099c6012836106c8565b91506109a782610966565b602082019050919050565b600060208201905081810360008301526109cb8161098f565b9050919050565b7f4d696e20697320312e0000000000000000000000000000000000000000000000600082015250565b6000610a086009836106c8565b9150610a13826109d2565b602082019050919050565b60006020820190508181036000830152610a37816109fb565b9050919050565b7f4e487b7100000000000000000000000000000000000000000000000000000000600052601260045260246000fd5b7f4e487b7100000000000000000000000000000000000000000000000000000000600052601160045260246000fd5b6000610aa78261076f565b9150610ab28361076f565b925082610ac257610ac1610a3e565b5b828204905092915050565b6000610ad88261076f565b9150610ae38361076f565b9250828202610af18161076f565b91508282048414831517610b0857610b07610a6d565b5b5092915050565b6000610b1a8261076f565b9150610b258361076f565b9250828201905080821115610b3d57610b3c610a6d565b5b92915050565b7f546f6f206d75636820746f206c616e642e000000000000000000000000000000600082015250565b6000610b796011836106c8565b9150610b8482610b43565b602082019050919050565b60006020820190508181036000830152610ba881610b6c565b9050919050565b610bb8816107c8565b82525050565b6000602082019050610bd36000830184610baf565b92915050565b600081519050610be881610833565b92915050565b600060208284031215610c0457610c036107a3565b5b6000610c1284828501610bd9565b91505092915050565b7f4e6f7420656e6f756768206675656c20746f6b656e2e00000000000000000000600082015250565b6000610c516016836106c8565b9150610c5c82610c1b565b602082019050919050565b60006020820190508181036000830152610c8081610c44565b9050919050565b6000604082019050610c9c6000830185610baf565b610ca96020830184610baf565b9392505050565b7f4e6f7420656e6f75676820616c6c6f77616e63652e0000000000000000000000600082015250565b6000610ce66015836106c8565b9150610cf182610cb0565b602082019050919050565b60006020820190508181036000830152610d1581610cd9565b9050919050565b6000606082019050610d316000830186610baf565b610d3e6020830185610baf565b610d4b6040830184610779565b949350505050565b60008115159050919050565b610d6881610d53565b8114610d7357600080fd5b50565b600081519050610d8581610d5f565b92915050565b600060208284031215610da157610da06107a3565b5b6000610daf84828501610d76565b9150509291505056fea2646970667358221220ac06fcb15a297dfb463d14706563703d43a7acc2deab68e9ca653fbaff79288864736f6c63430008180033",
  "linkReferences": {},
  "deployedLinkReferences": {}
}